{
  "_format": "hh-sol-artifact-1",
  "contractName": "PinnieHatStore",
  "sourceName": "contracts/PinnieHatStore.sol",
  "abi": [
    {
      "inputs": [
        {
          "internalType": "address",
          "name": "initialOwner",
          "type": "address"
        }
      ],
      "stateMutability": "nonpayable",
      "type": "constructor"
    },
    {
      "inputs": [
        {
          "internalType": "address",
          "name": "sender",
          "type": "address"
        },
        {
          "internalType": "uint256",
          "name": "balance",
          "type": "uint256"
        },
        {
          "internalType": "uint256",
          "name": "needed",
          "type": "uint256"
        },
        {
          "internalType": "uint256",
          "name": "tokenId",
          "type": "uint256"
        }
      ],
      "name": "ERC1155InsufficientBalance",
      "type": "error"
    },
    {
      "inputs": [
        {
          "internalType": "address",
          "name": "approver",
          "type": "address"
        }
      ],
      "name": "ERC1155InvalidApprover",
      "type": "error"
    },
    {
      "inputs": [
        {
          "internalType": "uint256",
          "name": "idsLength",
          "type": "uint256"
        },
        {
          "internalType": "uint256",
          "name": "valuesLength",
          "type": "uint256"
        }
      ],
      "name": "ERC1155InvalidArrayLength",
      "type": "error"
    },
    {
      "inputs": [
        {
          "internalType": "address",
          "name": "operator",
          "type": "address"
        }
      ],
      "name": "ERC1155InvalidOperator",
      "type": "error"
    },
    {
      "inputs": [
        {
          "internalType": "address",
          "name": "receiver",
          "type": "address"
        }
      ],
      "name": "ERC1155InvalidReceiver",
      "type": "error"
    },
    {
      "inputs": [
        {
          "internalType": "address",
          "name": "sender",
          "type": "address"
        }
      ],
      "name": "ERC1155InvalidSender",
      "type": "error"
    },
    {
      "inputs": [
        {
          "internalType": "address",
          "name": "operator",
          "type": "address"
        },
        {
          "internalType": "address",
          "name": "owner",
          "type": "address"
        }
      ],
      "name": "ERC1155MissingApprovalForAll",
      "type": "error"
    },
    {
      "inputs": [],
      "name": "EnforcedPause",
      "type": "error"
    },
    {
      "inputs": [],
      "name": "ExpectedPause",
      "type": "error"
    },
    {
      "inputs": [
        {
          "internalType": "address",
          "name": "owner",
          "type": "address"
        }
      ],
      "name": "OwnableInvalidOwner",
      "type": "error"
    },
    {
      "inputs": [
        {
          "internalType": "address",
          "name": "account",
          "type": "address"
        }
      ],
      "name": "OwnableUnauthorizedAccount",
      "type": "error"
    },
    {
      "anonymous": false,
      "inputs": [
        {
          "indexed": true,
          "internalType": "address",
          "name": "account",
          "type": "address"
        },
        {
          "indexed": true,
          "internalType": "address",
          "name": "operator",
          "type": "address"
        },
        {
          "indexed": false,
          "internalType": "bool",
          "name": "approved",
          "type": "bool"
        }
      ],
      "name": "ApprovalForAll",
      "type": "event"
    },
    {
      "anonymous": false,
      "inputs": [
        {
          "indexed": false,
          "internalType": "uint256",
          "name": "FID",
          "type": "uint256"
        },
        {
          "indexed": false,
          "internalType": "address",
          "name": "buyer",
          "type": "address"
        }
      ],
      "name": "HatPurchased",
      "type": "event"
    },
    {
      "anonymous": false,
      "inputs": [
        {
          "indexed": true,
          "internalType": "address",
          "name": "previousOwner",
          "type": "address"
        },
        {
          "indexed": true,
          "internalType": "address",
          "name": "newOwner",
          "type": "address"
        }
      ],
      "name": "OwnershipTransferred",
      "type": "event"
    },
    {
      "anonymous": false,
      "inputs": [
        {
          "indexed": false,
          "internalType": "address",
          "name": "account",
          "type": "address"
        }
      ],
      "name": "Paused",
      "type": "event"
    },
    {
      "anonymous": false,
      "inputs": [
        {
          "indexed": true,
          "internalType": "address",
          "name": "operator",
          "type": "address"
        },
        {
          "indexed": true,
          "internalType": "address",
          "name": "from",
          "type": "address"
        },
        {
          "indexed": true,
          "internalType": "address",
          "name": "to",
          "type": "address"
        },
        {
          "indexed": false,
          "internalType": "uint256[]",
          "name": "ids",
          "type": "uint256[]"
        },
        {
          "indexed": false,
          "internalType": "uint256[]",
          "name": "values",
          "type": "uint256[]"
        }
      ],
      "name": "TransferBatch",
      "type": "event"
    },
    {
      "anonymous": false,
      "inputs": [
        {
          "indexed": true,
          "internalType": "address",
          "name": "operator",
          "type": "address"
        },
        {
          "indexed": true,
          "internalType": "address",
          "name": "from",
          "type": "address"
        },
        {
          "indexed": true,
          "internalType": "address",
          "name": "to",
          "type": "address"
        },
        {
          "indexed": false,
          "internalType": "uint256",
          "name": "id",
          "type": "uint256"
        },
        {
          "indexed": false,
          "internalType": "uint256",
          "name": "value",
          "type": "uint256"
        }
      ],
      "name": "TransferSingle",
      "type": "event"
    },
    {
      "anonymous": false,
      "inputs": [
        {
          "indexed": false,
          "internalType": "string",
          "name": "value",
          "type": "string"
        },
        {
          "indexed": true,
          "internalType": "uint256",
          "name": "id",
          "type": "uint256"
        }
      ],
      "name": "URI",
      "type": "event"
    },
    {
      "anonymous": false,
      "inputs": [
        {
          "indexed": false,
          "internalType": "address",
          "name": "account",
          "type": "address"
        }
      ],
      "name": "Unpaused",
      "type": "event"
    },
    {
      "inputs": [
        {
          "internalType": "address",
          "name": "",
          "type": "address"
        }
      ],
      "name": "addressPurchasedHat",
      "outputs": [
        {
          "internalType": "bool",
          "name": "",
          "type": "bool"
        }
      ],
      "stateMutability": "view",
      "type": "function"
    },
    {
      "inputs": [
        {
          "internalType": "address",
          "name": "account",
          "type": "address"
        },
        {
          "internalType": "uint256",
          "name": "id",
          "type": "uint256"
        }
      ],
      "name": "balanceOf",
      "outputs": [
        {
          "internalType": "uint256",
          "name": "",
          "type": "uint256"
        }
      ],
      "stateMutability": "view",
      "type": "function"
    },
    {
      "inputs": [
        {
          "internalType": "address[]",
          "name": "accounts",
          "type": "address[]"
        },
        {
          "internalType": "uint256[]",
          "name": "ids",
          "type": "uint256[]"
        }
      ],
      "name": "balanceOfBatch",
      "outputs": [
        {
          "internalType": "uint256[]",
          "name": "",
          "type": "uint256[]"
        }
      ],
      "stateMutability": "view",
      "type": "function"
    },
    {
      "inputs": [
        {
          "internalType": "address",
          "name": "account",
          "type": "address"
        },
        {
          "internalType": "uint256",
          "name": "id",
          "type": "uint256"
        },
        {
          "internalType": "uint256",
          "name": "value",
          "type": "uint256"
        }
      ],
      "name": "burn",
      "outputs": [],
      "stateMutability": "nonpayable",
      "type": "function"
    },
    {
      "inputs": [
        {
          "internalType": "address",
          "name": "account",
          "type": "address"
        },
        {
          "internalType": "uint256[]",
          "name": "ids",
          "type": "uint256[]"
        },
        {
          "internalType": "uint256[]",
          "name": "values",
          "type": "uint256[]"
        }
      ],
      "name": "burnBatch",
      "outputs": [],
      "stateMutability": "nonpayable",
      "type": "function"
    },
    {
      "inputs": [
        {
          "internalType": "uint256",
          "name": "FID",
          "type": "uint256"
        }
      ],
      "name": "buyHat",
      "outputs": [],
      "stateMutability": "payable",
      "type": "function"
    },
    {
      "inputs": [
        {
          "internalType": "address",
          "name": "account",
          "type": "address"
        },
        {
          "internalType": "address",
          "name": "operator",
          "type": "address"
        }
      ],
      "name": "isApprovedForAll",
      "outputs": [
        {
          "internalType": "bool",
          "name": "",
          "type": "bool"
        }
      ],
      "stateMutability": "view",
      "type": "function"
    },
    {
      "inputs": [
        {
          "internalType": "address",
          "name": "account",
          "type": "address"
        }
      ],
      "name": "mint",
      "outputs": [],
      "stateMutability": "nonpayable",
      "type": "function"
    },
    {
      "inputs": [
        {
          "internalType": "address",
          "name": "to",
          "type": "address"
        },
        {
          "internalType": "uint256[]",
          "name": "ids",
          "type": "uint256[]"
        },
        {
          "internalType": "uint256[]",
          "name": "amounts",
          "type": "uint256[]"
        },
        {
          "internalType": "bytes",
          "name": "data",
          "type": "bytes"
        }
      ],
      "name": "mintBatch",
      "outputs": [],
      "stateMutability": "nonpayable",
      "type": "function"
    },
    {
      "inputs": [],
      "name": "owner",
      "outputs": [
        {
          "internalType": "address",
          "name": "",
          "type": "address"
        }
      ],
      "stateMutability": "view",
      "type": "function"
    },
    {
      "inputs": [],
      "name": "pause",
      "outputs": [],
      "stateMutability": "nonpayable",
      "type": "function"
    },
    {
      "inputs": [],
      "name": "paused",
      "outputs": [
        {
          "internalType": "bool",
          "name": "",
          "type": "bool"
        }
      ],
      "stateMutability": "view",
      "type": "function"
    },
    {
      "inputs": [],
      "name": "renounceOwnership",
      "outputs": [],
      "stateMutability": "nonpayable",
      "type": "function"
    },
    {
      "inputs": [
        {
          "internalType": "address",
          "name": "from",
          "type": "address"
        },
        {
          "internalType": "address",
          "name": "to",
          "type": "address"
        },
        {
          "internalType": "uint256[]",
          "name": "ids",
          "type": "uint256[]"
        },
        {
          "internalType": "uint256[]",
          "name": "amounts",
          "type": "uint256[]"
        },
        {
          "internalType": "bytes",
          "name": "data",
          "type": "bytes"
        }
      ],
      "name": "safeBatchTransferFrom",
      "outputs": [],
      "stateMutability": "nonpayable",
      "type": "function"
    },
    {
      "inputs": [
        {
          "internalType": "address",
          "name": "from",
          "type": "address"
        },
        {
          "internalType": "address",
          "name": "to",
          "type": "address"
        },
        {
          "internalType": "uint256",
          "name": "id",
          "type": "uint256"
        },
        {
          "internalType": "uint256",
          "name": "amount",
          "type": "uint256"
        },
        {
          "internalType": "bytes",
          "name": "data",
          "type": "bytes"
        }
      ],
      "name": "safeTransferFrom",
      "outputs": [],
      "stateMutability": "nonpayable",
      "type": "function"
    },
    {
      "inputs": [
        {
          "internalType": "address",
          "name": "operator",
          "type": "address"
        },
        {
          "internalType": "bool",
          "name": "approved",
          "type": "bool"
        }
      ],
      "name": "setApprovalForAll",
      "outputs": [],
      "stateMutability": "nonpayable",
      "type": "function"
    },
    {
      "inputs": [
        {
          "internalType": "bytes4",
          "name": "interfaceId",
          "type": "bytes4"
        }
      ],
      "name": "supportsInterface",
      "outputs": [
        {
          "internalType": "bool",
          "name": "",
          "type": "bool"
        }
      ],
      "stateMutability": "view",
      "type": "function"
    },
    {
      "inputs": [],
      "name": "totalSupply",
      "outputs": [
        {
          "internalType": "uint256",
          "name": "",
          "type": "uint256"
        }
      ],
      "stateMutability": "view",
      "type": "function"
    },
    {
      "inputs": [
        {
          "internalType": "address",
          "name": "newOwner",
          "type": "address"
        }
      ],
      "name": "transferOwnership",
      "outputs": [],
      "stateMutability": "nonpayable",
      "type": "function"
    },
    {
      "inputs": [],
      "name": "unpause",
      "outputs": [],
      "stateMutability": "nonpayable",
      "type": "function"
    },
    {
      "inputs": [
        {
          "internalType": "uint256",
          "name": "",
          "type": "uint256"
        }
      ],
      "name": "uri",
      "outputs": [
        {
          "internalType": "string",
          "name": "",
          "type": "string"
        }
      ],
      "stateMutability": "view",
      "type": "function"
    },
    {
      "inputs": [],
      "name": "withdraw",
      "outputs": [],
      "stateMutability": "nonpayable",
      "type": "function"
    }
  ],
  "bytecode": "0x608060405260196004553480156200001657600080fd5b50604051620037a4380380620037a483398181016040528101906200003c919062000257565b806040518060600160405280603581526020016200376f6035913962000068816200011260201b60201c565b506000600360006101000a81548160ff021916908315150217905550600073ffffffffffffffffffffffffffffffffffffffff168173ffffffffffffffffffffffffffffffffffffffff1603620000f95760006040517f1e4fbdf7000000000000000000000000000000000000000000000000000000008152600401620000f091906200029a565b60405180910390fd5b6200010a816200012760201b60201c565b505062000618565b806002908162000123919062000531565b5050565b6000600360019054906101000a900473ffffffffffffffffffffffffffffffffffffffff16905081600360016101000a81548173ffffffffffffffffffffffffffffffffffffffff021916908373ffffffffffffffffffffffffffffffffffffffff1602179055508173ffffffffffffffffffffffffffffffffffffffff168173ffffffffffffffffffffffffffffffffffffffff167f8be0079c531659141344cd1fd0a4f28419497f9722a3daafe3b4186f6b6457e060405160405180910390a35050565b600080fd5b600073ffffffffffffffffffffffffffffffffffffffff82169050919050565b60006200021f82620001f2565b9050919050565b620002318162000212565b81146200023d57600080fd5b50565b600081519050620002518162000226565b92915050565b60006020828403121562000270576200026f620001ed565b5b6000620002808482850162000240565b91505092915050565b620002948162000212565b82525050565b6000602082019050620002b1600083018462000289565b92915050565b600081519050919050565b7f4e487b7100000000000000000000000000000000000000000000000000000000600052604160045260246000fd5b7f4e487b7100000000000000000000000000000000000000000000000000000000600052602260045260246000fd5b600060028204905060018216806200033957607f821691505b6020821081036200034f576200034e620002f1565b5b50919050565b60008190508160005260206000209050919050565b60006020601f8301049050919050565b600082821b905092915050565b600060088302620003b97fffffffffffffffffffffffffffffffffffffffffffffffffffffffffffffffff826200037a565b620003c586836200037a565b95508019841693508086168417925050509392505050565b6000819050919050565b6000819050919050565b6000620004126200040c6200040684620003dd565b620003e7565b620003dd565b9050919050565b6000819050919050565b6200042e83620003f1565b620004466200043d8262000419565b84845462000387565b825550505050565b600090565b6200045d6200044e565b6200046a81848462000423565b505050565b5b8181101562000492576200048660008262000453565b60018101905062000470565b5050565b601f821115620004e157620004ab8162000355565b620004b6846200036a565b81016020851015620004c6578190505b620004de620004d5856200036a565b8301826200046f565b50505b505050565b600082821c905092915050565b60006200050660001984600802620004e6565b1980831691505092915050565b6000620005218383620004f3565b9150826002028217905092915050565b6200053c82620002b7565b67ffffffffffffffff811115620005585762000557620002c2565b5b62000564825462000320565b6200057182828562000496565b600060209050601f831160018114620005a9576000841562000594578287015190505b620005a0858262000513565b86555062000610565b601f198416620005b98662000355565b60005b82811015620005e357848901518255600182019150602085019450602081019050620005bc565b86831015620006035784890151620005ff601f891682620004f3565b8355505b6001600288020188555050505b505050505050565b61314780620006286000396000f3fe6080604052600436106101345760003560e01c80636b20c454116100ab578063a0d83af31161006f578063a0d83af3146103ca578063a22cb46514610407578063e985e9c514610430578063f242432a1461046d578063f2fde38b14610496578063f5298aca146104bf57610134565b80636b20c4541461032c578063715018a6146103555780638456cb591461036c5780638da5cb5b146103835780639fd4d4d4146103ae57610134565b80632eb2c2d6116100fd5780632eb2c2d6146102445780633ccfd60b1461026d5780633f4ba83a146102845780634e1273f41461029b5780635c975abb146102d85780636a6278421461030357610134565b8062fdd58e1461013957806301ffc9a7146101765780630e89341c146101b357806318160ddd146101f05780631f7fdffa1461021b575b600080fd5b34801561014557600080fd5b50610160600480360381019061015b9190612144565b6104e8565b60405161016d9190612193565b60405180910390f35b34801561018257600080fd5b5061019d60048036038101906101989190612206565b610542565b6040516101aa919061224e565b60405180910390f35b3480156101bf57600080fd5b506101da60048036038101906101d59190612269565b610624565b6040516101e79190612326565b60405180910390f35b3480156101fc57600080fd5b506102056106b8565b6040516102129190612193565b60405180910390f35b34801561022757600080fd5b50610242600480360381019061023d9190612545565b6106be565b005b34801561025057600080fd5b5061026b60048036038101906102669190612600565b6106d8565b005b34801561027957600080fd5b506102826106f4565b005b34801561029057600080fd5b50610299610752565b005b3480156102a757600080fd5b506102c260048036038101906102bd9190612792565b610764565b6040516102cf91906128c8565b60405180910390f35b3480156102e457600080fd5b506102ed610873565b6040516102fa919061224e565b60405180910390f35b34801561030f57600080fd5b5061032a600480360381019061032591906128ea565b61088a565b005b34801561033857600080fd5b50610353600480360381019061034e9190612917565b6108f0565b005b34801561036157600080fd5b5061036a61099c565b005b34801561037857600080fd5b506103816109b0565b005b34801561038f57600080fd5b506103986109c2565b6040516103a591906129b1565b60405180910390f35b6103c860048036038101906103c39190612269565b6109ec565b005b3480156103d657600080fd5b506103f160048036038101906103ec91906128ea565b610c15565b6040516103fe919061224e565b60405180910390f35b34801561041357600080fd5b5061042e600480360381019061042991906129f8565b610c35565b005b34801561043c57600080fd5b5061045760048036038101906104529190612a38565b610c4b565b604051610464919061224e565b60405180910390f35b34801561047957600080fd5b50610494600480360381019061048f9190612a78565b610cdf565b005b3480156104a257600080fd5b506104bd60048036038101906104b891906128ea565b610cfb565b005b3480156104cb57600080fd5b506104e660048036038101906104e19190612b0f565b610d81565b005b600080600083815260200190815260200160002060008473ffffffffffffffffffffffffffffffffffffffff1673ffffffffffffffffffffffffffffffffffffffff16815260200190815260200160002054905092915050565b60007fd9b67a26000000000000000000000000000000000000000000000000000000007bffffffffffffffffffffffffffffffffffffffffffffffffffffffff1916827bffffffffffffffffffffffffffffffffffffffffffffffffffffffff1916148061060d57507f0e89341c000000000000000000000000000000000000000000000000000000007bffffffffffffffffffffffffffffffffffffffffffffffffffffffff1916827bffffffffffffffffffffffffffffffffffffffffffffffffffffffff1916145b8061061d575061061c82610e2d565b5b9050919050565b60606002805461063390612b91565b80601f016020809104026020016040519081016040528092919081815260200182805461065f90612b91565b80156106ac5780601f10610681576101008083540402835291602001916106ac565b820191906000526020600020905b81548152906001019060200180831161068f57829003601f168201915b50505050509050919050565b60045481565b6106c6610e97565b6106d284848484610f1e565b50505050565b6106e0610e97565b6106ed8585858585610fa4565b5050505050565b6106fc610e97565b60004790506107096109c2565b73ffffffffffffffffffffffffffffffffffffffff166108fc829081150290604051600060405180830381858888f1935050505015801561074e573d6000803e3d6000fd5b5050565b61075a610e97565b61076261104c565b565b606081518351146107b057815183516040517f5b0599910000000000000000000000000000000000000000000000000000000081526004016107a7929190612bc2565b60405180910390fd5b6000835167ffffffffffffffff8111156107cd576107cc61234d565b5b6040519080825280602002602001820160405280156107fb5781602001602082028036833780820191505090505b50905060005b84518110156108685761083861082082876110af90919063ffffffff16565b61083383876110c390919063ffffffff16565b6104e8565b82828151811061084b5761084a612beb565b5b6020026020010181815250508061086190612c49565b9050610801565b508091505092915050565b6000600360009054906101000a900460ff16905090565b610892610e97565b6108ed8160006001600067ffffffffffffffff8111156108b5576108b461234d565b5b6040519080825280601f01601f1916602001820160405280156108e75781602001600182028036833780820191505090505b506110d7565b50565b6108f8611170565b73ffffffffffffffffffffffffffffffffffffffff168373ffffffffffffffffffffffffffffffffffffffff1614158015610941575061093f8361093a611170565b610c4b565b155b1561098c5761094e611170565b836040517fe237d922000000000000000000000000000000000000000000000000000000008152600401610983929190612c91565b60405180910390fd5b610997838383611178565b505050565b6109a4610e97565b6109ae600061120c565b565b6109b8610e97565b6109c06112d2565b565b6000600360019054906101000a900473ffffffffffffffffffffffffffffffffffffffff16905090565b600560003373ffffffffffffffffffffffffffffffffffffffff1673ffffffffffffffffffffffffffffffffffffffff16815260200190815260200160002060009054906101000a900460ff1615610a79576040517f08c379a0000000000000000000000000000000000000000000000000000000008152600401610a7090612d2c565b60405180910390fd5b600060045411610abe576040517f08c379a0000000000000000000000000000000000000000000000000000000008152600401610ab590612d98565b60405180910390fd5b6000610acb3360006104e8565b1115610b1f576608e1bc9bf040003414610b1a576040517f08c379a0000000000000000000000000000000000000000000000000000000008152600401610b1190612e2a565b60405180910390fd5b610b69565b6611c37937e080003414610b68576040517f08c379a0000000000000000000000000000000000000000000000000000000008152600401610b5f90612e96565b60405180910390fd5b5b60046000815480929190610b7c90612eb6565b91905055506001600560003373ffffffffffffffffffffffffffffffffffffffff1673ffffffffffffffffffffffffffffffffffffffff16815260200190815260200160002060006101000a81548160ff0219169083151502179055507f583915328d44b65ed77a6f2c0b16059c0222c2c1baebdddb3d572c170479aae88133604051610c0a929190612edf565b60405180910390a150565b60056020528060005260406000206000915054906101000a900460ff1681565b610c47610c40611170565b8383611335565b5050565b6000600160008473ffffffffffffffffffffffffffffffffffffffff1673ffffffffffffffffffffffffffffffffffffffff16815260200190815260200160002060008373ffffffffffffffffffffffffffffffffffffffff1673ffffffffffffffffffffffffffffffffffffffff16815260200190815260200160002060009054906101000a900460ff16905092915050565b610ce7610e97565b610cf485858585856114a5565b5050505050565b610d03610e97565b600073ffffffffffffffffffffffffffffffffffffffff168173ffffffffffffffffffffffffffffffffffffffff1603610d755760006040517f1e4fbdf7000000000000000000000000000000000000000000000000000000008152600401610d6c91906129b1565b60405180910390fd5b610d7e8161120c565b50565b610d89611170565b73ffffffffffffffffffffffffffffffffffffffff168373ffffffffffffffffffffffffffffffffffffffff1614158015610dd25750610dd083610dcb611170565b610c4b565b155b15610e1d57610ddf611170565b836040517fe237d922000000000000000000000000000000000000000000000000000000008152600401610e14929190612c91565b60405180910390fd5b610e2883838361154d565b505050565b60007f01ffc9a7000000000000000000000000000000000000000000000000000000007bffffffffffffffffffffffffffffffffffffffffffffffffffffffff1916827bffffffffffffffffffffffffffffffffffffffffffffffffffffffff1916149050919050565b610e9f611170565b73ffffffffffffffffffffffffffffffffffffffff16610ebd6109c2565b73ffffffffffffffffffffffffffffffffffffffff1614610f1c57610ee0611170565b6040517f118cdaa7000000000000000000000000000000000000000000000000000000008152600401610f1391906129b1565b60405180910390fd5b565b600073ffffffffffffffffffffffffffffffffffffffff168473ffffffffffffffffffffffffffffffffffffffff1603610f905760006040517f57f447ce000000000000000000000000000000000000000000000000000000008152600401610f8791906129b1565b60405180910390fd5b610f9e6000858585856115f4565b50505050565b6000610fae611170565b90508073ffffffffffffffffffffffffffffffffffffffff168673ffffffffffffffffffffffffffffffffffffffff1614158015610ff35750610ff18682610c4b565b155b156110375780866040517fe237d92200000000000000000000000000000000000000000000000000000000815260040161102e929190612c91565b60405180910390fd5b61104486868686866116a6565b505050505050565b61105461179e565b6000600360006101000a81548160ff0219169083151502179055507f5db9ee0a495bf2e6ff9c91a7834c1ba4fdd244a5e8aa4e537bd38aeae4b073aa611098611170565b6040516110a591906129b1565b60405180910390a1565b600060208202602084010151905092915050565b600060208202602084010151905092915050565b600073ffffffffffffffffffffffffffffffffffffffff168473ffffffffffffffffffffffffffffffffffffffff16036111495760006040517f57f447ce00000000000000000000000000000000000000000000000000000000815260040161114091906129b1565b60405180910390fd5b60008061115685856117de565b915091506111686000878484876115f4565b505050505050565b600033905090565b600073ffffffffffffffffffffffffffffffffffffffff168373ffffffffffffffffffffffffffffffffffffffff16036111ea5760006040517f01a835140000000000000000000000000000000000000000000000000000000081526004016111e191906129b1565b60405180910390fd5b6112078360008484604051806020016040528060008152506115f4565b505050565b6000600360019054906101000a900473ffffffffffffffffffffffffffffffffffffffff16905081600360016101000a81548173ffffffffffffffffffffffffffffffffffffffff021916908373ffffffffffffffffffffffffffffffffffffffff1602179055508173ffffffffffffffffffffffffffffffffffffffff168173ffffffffffffffffffffffffffffffffffffffff167f8be0079c531659141344cd1fd0a4f28419497f9722a3daafe3b4186f6b6457e060405160405180910390a35050565b6112da61180e565b6001600360006101000a81548160ff0219169083151502179055507f62e78cea01bee320cd4e420270b5ea74000d11b0c9f74754ebdbfc544b05a25861131e611170565b60405161132b91906129b1565b60405180910390a1565b600073ffffffffffffffffffffffffffffffffffffffff168273ffffffffffffffffffffffffffffffffffffffff16036113a75760006040517fced3e10000000000000000000000000000000000000000000000000000000000815260040161139e91906129b1565b60405180910390fd5b80600160008573ffffffffffffffffffffffffffffffffffffffff1673ffffffffffffffffffffffffffffffffffffffff16815260200190815260200160002060008473ffffffffffffffffffffffffffffffffffffffff1673ffffffffffffffffffffffffffffffffffffffff16815260200190815260200160002060006101000a81548160ff0219169083151502179055508173ffffffffffffffffffffffffffffffffffffffff168373ffffffffffffffffffffffffffffffffffffffff167f17307eab39ab6107e8899845ad3d59bd9653f200f220920489ca2b5937696c3183604051611498919061224e565b60405180910390a3505050565b60006114af611170565b90508073ffffffffffffffffffffffffffffffffffffffff168673ffffffffffffffffffffffffffffffffffffffff16141580156114f457506114f28682610c4b565b155b156115385780866040517fe237d92200000000000000000000000000000000000000000000000000000000815260040161152f929190612c91565b60405180910390fd5b611545868686868661184f565b505050505050565b600073ffffffffffffffffffffffffffffffffffffffff168373ffffffffffffffffffffffffffffffffffffffff16036115bf5760006040517f01a835140000000000000000000000000000000000000000000000000000000081526004016115b691906129b1565b60405180910390fd5b6000806115cc84846117de565b915091506115ed8560008484604051806020016040528060008152506115f4565b5050505050565b6116008585858561195a565b600073ffffffffffffffffffffffffffffffffffffffff168473ffffffffffffffffffffffffffffffffffffffff161461169f57600061163e611170565b9050600184510361168e57600061165f6000866110c390919063ffffffff16565b905060006116776000866110c390919063ffffffff16565b905061168783898985858961196c565b505061169d565b61169c818787878787611b20565b5b505b5050505050565b600073ffffffffffffffffffffffffffffffffffffffff168473ffffffffffffffffffffffffffffffffffffffff16036117185760006040517f57f447ce00000000000000000000000000000000000000000000000000000000815260040161170f91906129b1565b60405180910390fd5b600073ffffffffffffffffffffffffffffffffffffffff168573ffffffffffffffffffffffffffffffffffffffff160361178a5760006040517f01a8351400000000000000000000000000000000000000000000000000000000815260040161178191906129b1565b60405180910390fd5b61179785858585856115f4565b5050505050565b6117a6610873565b6117dc576040517f8dfc202b00000000000000000000000000000000000000000000000000000000815260040160405180910390fd5b565b60608060405191506001825283602083015260408201905060018152826020820152604081016040529250929050565b611816610873565b1561184d576040517fd93c066500000000000000000000000000000000000000000000000000000000815260040160405180910390fd5b565b600073ffffffffffffffffffffffffffffffffffffffff168473ffffffffffffffffffffffffffffffffffffffff16036118c15760006040517f57f447ce0000000000000000000000000000000000000000000000000000000081526004016118b891906129b1565b60405180910390fd5b600073ffffffffffffffffffffffffffffffffffffffff168573ffffffffffffffffffffffffffffffffffffffff16036119335760006040517f01a8351400000000000000000000000000000000000000000000000000000000815260040161192a91906129b1565b60405180910390fd5b60008061194085856117de565b9150915061195187878484876115f4565b50505050505050565b61196684848484611cd4565b50505050565b60008473ffffffffffffffffffffffffffffffffffffffff163b1115611b18578373ffffffffffffffffffffffffffffffffffffffff1663f23a6e6187878686866040518663ffffffff1660e01b81526004016119cd959493929190612f5d565b6020604051808303816000875af1925050508015611a0957506040513d601f19601f82011682018060405250810190611a069190612fcc565b60015b611a8d573d8060008114611a39576040519150601f19603f3d011682016040523d82523d6000602084013e611a3e565b606091505b506000815103611a8557846040517f57f447ce000000000000000000000000000000000000000000000000000000008152600401611a7c91906129b1565b60405180910390fd5b805181602001fd5b63f23a6e6160e01b7bffffffffffffffffffffffffffffffffffffffffffffffffffffffff1916817bffffffffffffffffffffffffffffffffffffffffffffffffffffffff191614611b1657846040517f57f447ce000000000000000000000000000000000000000000000000000000008152600401611b0d91906129b1565b60405180910390fd5b505b505050505050565b60008473ffffffffffffffffffffffffffffffffffffffff163b1115611ccc578373ffffffffffffffffffffffffffffffffffffffff1663bc197c8187878686866040518663ffffffff1660e01b8152600401611b81959493929190612ff9565b6020604051808303816000875af1925050508015611bbd57506040513d601f19601f82011682018060405250810190611bba9190612fcc565b60015b611c41573d8060008114611bed576040519150601f19603f3d011682016040523d82523d6000602084013e611bf2565b606091505b506000815103611c3957846040517f57f447ce000000000000000000000000000000000000000000000000000000008152600401611c3091906129b1565b60405180910390fd5b805181602001fd5b63bc197c8160e01b7bffffffffffffffffffffffffffffffffffffffffffffffffffffffff1916817bffffffffffffffffffffffffffffffffffffffffffffffffffffffff191614611cca57846040517f57f447ce000000000000000000000000000000000000000000000000000000008152600401611cc191906129b1565b60405180910390fd5b505b505050505050565b611cdc61180e565b611ce884848484611cee565b50505050565b8051825114611d3857815181516040517f5b059991000000000000000000000000000000000000000000000000000000008152600401611d2f929190612bc2565b60405180910390fd5b6000611d42611170565b905060005b8351811015611f57576000611d6582866110c390919063ffffffff16565b90506000611d7c83866110c390919063ffffffff16565b9050600073ffffffffffffffffffffffffffffffffffffffff168873ffffffffffffffffffffffffffffffffffffffff1614611ea957600080600084815260200190815260200160002060008a73ffffffffffffffffffffffffffffffffffffffff1673ffffffffffffffffffffffffffffffffffffffff16815260200190815260200160002054905081811015611e5157888183856040517f03dee4c5000000000000000000000000000000000000000000000000000000008152600401611e489493929190613061565b60405180910390fd5b81810360008085815260200190815260200160002060008b73ffffffffffffffffffffffffffffffffffffffff1673ffffffffffffffffffffffffffffffffffffffff16815260200190815260200160002081905550505b600073ffffffffffffffffffffffffffffffffffffffff168773ffffffffffffffffffffffffffffffffffffffff1614611f44578060008084815260200190815260200160002060008973ffffffffffffffffffffffffffffffffffffffff1673ffffffffffffffffffffffffffffffffffffffff1681526020019081526020016000206000828254611f3c91906130a6565b925050819055505b505080611f5090612c49565b9050611d47565b506001835103612016576000611f776000856110c390919063ffffffff16565b90506000611f8f6000856110c390919063ffffffff16565b90508573ffffffffffffffffffffffffffffffffffffffff168773ffffffffffffffffffffffffffffffffffffffff168473ffffffffffffffffffffffffffffffffffffffff167fc3d58168c5ae7397731d063d5bbf3d657854427343f4c083240f7aacaa2d0f628585604051612007929190612bc2565b60405180910390a45050612095565b8373ffffffffffffffffffffffffffffffffffffffff168573ffffffffffffffffffffffffffffffffffffffff168273ffffffffffffffffffffffffffffffffffffffff167f4a39dc06d4c0dbc64b70af90fd698a233a518aa5d07e595d983b8c0526c8f7fb868660405161208c9291906130da565b60405180910390a45b5050505050565b6000604051905090565b600080fd5b600080fd5b600073ffffffffffffffffffffffffffffffffffffffff82169050919050565b60006120db826120b0565b9050919050565b6120eb816120d0565b81146120f657600080fd5b50565b600081359050612108816120e2565b92915050565b6000819050919050565b6121218161210e565b811461212c57600080fd5b50565b60008135905061213e81612118565b92915050565b6000806040838503121561215b5761215a6120a6565b5b6000612169858286016120f9565b925050602061217a8582860161212f565b9150509250929050565b61218d8161210e565b82525050565b60006020820190506121a86000830184612184565b92915050565b60007fffffffff0000000000000000000000000000000000000000000000000000000082169050919050565b6121e3816121ae565b81146121ee57600080fd5b50565b600081359050612200816121da565b92915050565b60006020828403121561221c5761221b6120a6565b5b600061222a848285016121f1565b91505092915050565b60008115159050919050565b61224881612233565b82525050565b6000602082019050612263600083018461223f565b92915050565b60006020828403121561227f5761227e6120a6565b5b600061228d8482850161212f565b91505092915050565b600081519050919050565b600082825260208201905092915050565b60005b838110156122d05780820151818401526020810190506122b5565b60008484015250505050565b6000601f19601f8301169050919050565b60006122f882612296565b61230281856122a1565b93506123128185602086016122b2565b61231b816122dc565b840191505092915050565b6000602082019050818103600083015261234081846122ed565b905092915050565b600080fd5b7f4e487b7100000000000000000000000000000000000000000000000000000000600052604160045260246000fd5b612385826122dc565b810181811067ffffffffffffffff821117156123a4576123a361234d565b5b80604052505050565b60006123b761209c565b90506123c3828261237c565b919050565b600067ffffffffffffffff8211156123e3576123e261234d565b5b602082029050602081019050919050565b600080fd5b600061240c612407846123c8565b6123ad565b9050808382526020820190506020840283018581111561242f5761242e6123f4565b5b835b818110156124585780612444888261212f565b845260208401935050602081019050612431565b5050509392505050565b600082601f83011261247757612476612348565b5b81356124878482602086016123f9565b91505092915050565b600080fd5b600067ffffffffffffffff8211156124b0576124af61234d565b5b6124b9826122dc565b9050602081019050919050565b82818337600083830152505050565b60006124e86124e384612495565b6123ad565b90508281526020810184848401111561250457612503612490565b5b61250f8482856124c6565b509392505050565b600082601f83011261252c5761252b612348565b5b813561253c8482602086016124d5565b91505092915050565b6000806000806080858703121561255f5761255e6120a6565b5b600061256d878288016120f9565b945050602085013567ffffffffffffffff81111561258e5761258d6120ab565b5b61259a87828801612462565b935050604085013567ffffffffffffffff8111156125bb576125ba6120ab565b5b6125c787828801612462565b925050606085013567ffffffffffffffff8111156125e8576125e76120ab565b5b6125f487828801612517565b91505092959194509250565b600080600080600060a0868803121561261c5761261b6120a6565b5b600061262a888289016120f9565b955050602061263b888289016120f9565b945050604086013567ffffffffffffffff81111561265c5761265b6120ab565b5b61266888828901612462565b935050606086013567ffffffffffffffff811115612689576126886120ab565b5b61269588828901612462565b925050608086013567ffffffffffffffff8111156126b6576126b56120ab565b5b6126c288828901612517565b9150509295509295909350565b600067ffffffffffffffff8211156126ea576126e961234d565b5b602082029050602081019050919050565b600061270e612709846126cf565b6123ad565b90508083825260208201905060208402830185811115612731576127306123f4565b5b835b8181101561275a578061274688826120f9565b845260208401935050602081019050612733565b5050509392505050565b600082601f83011261277957612778612348565b5b81356127898482602086016126fb565b91505092915050565b600080604083850312156127a9576127a86120a6565b5b600083013567ffffffffffffffff8111156127c7576127c66120ab565b5b6127d385828601612764565b925050602083013567ffffffffffffffff8111156127f4576127f36120ab565b5b61280085828601612462565b9150509250929050565b600081519050919050565b600082825260208201905092915050565b6000819050602082019050919050565b61283f8161210e565b82525050565b60006128518383612836565b60208301905092915050565b6000602082019050919050565b60006128758261280a565b61287f8185612815565b935061288a83612826565b8060005b838110156128bb5781516128a28882612845565b97506128ad8361285d565b92505060018101905061288e565b5085935050505092915050565b600060208201905081810360008301526128e2818461286a565b905092915050565b600060208284031215612900576128ff6120a6565b5b600061290e848285016120f9565b91505092915050565b6000806000606084860312156129305761292f6120a6565b5b600061293e868287016120f9565b935050602084013567ffffffffffffffff81111561295f5761295e6120ab565b5b61296b86828701612462565b925050604084013567ffffffffffffffff81111561298c5761298b6120ab565b5b61299886828701612462565b9150509250925092565b6129ab816120d0565b82525050565b60006020820190506129c660008301846129a2565b92915050565b6129d581612233565b81146129e057600080fd5b50565b6000813590506129f2816129cc565b92915050565b60008060408385031215612a0f57612a0e6120a6565b5b6000612a1d858286016120f9565b9250506020612a2e858286016129e3565b9150509250929050565b60008060408385031215612a4f57612a4e6120a6565b5b6000612a5d858286016120f9565b9250506020612a6e858286016120f9565b9150509250929050565b600080600080600060a08688031215612a9457612a936120a6565b5b6000612aa2888289016120f9565b9550506020612ab3888289016120f9565b9450506040612ac48882890161212f565b9350506060612ad58882890161212f565b925050608086013567ffffffffffffffff811115612af657612af56120ab565b5b612b0288828901612517565b9150509295509295909350565b600080600060608486031215612b2857612b276120a6565b5b6000612b36868287016120f9565b9350506020612b478682870161212f565b9250506040612b588682870161212f565b9150509250925092565b7f4e487b7100000000000000000000000000000000000000000000000000000000600052602260045260246000fd5b60006002820490506001821680612ba957607f821691505b602082108103612bbc57612bbb612b62565b5b50919050565b6000604082019050612bd76000830185612184565b612be46020830184612184565b9392505050565b7f4e487b7100000000000000000000000000000000000000000000000000000000600052603260045260246000fd5b7f4e487b7100000000000000000000000000000000000000000000000000000000600052601160045260246000fd5b6000612c548261210e565b91507fffffffffffffffffffffffffffffffffffffffffffffffffffffffffffffffff8203612c8657612c85612c1a565b5b600182019050919050565b6000604082019050612ca660008301856129a2565b612cb360208301846129a2565b9392505050565b7f4561636820616464726573732063616e206f6e6c7920627579206f6e6520686160008201527f742e000000000000000000000000000000000000000000000000000000000000602082015250565b6000612d166022836122a1565b9150612d2182612cba565b604082019050919050565b60006020820190508181036000830152612d4581612d09565b9050919050565b7f416c6c2074686520686174732061726520676f6e652100000000000000000000600082015250565b6000612d826016836122a1565b9150612d8d82612d4c565b602082019050919050565b60006020820190508181036000830152612db181612d75565b9050919050565b7f496e636f7272656374207061796d656e7420616d6f756e7420666f72204e465460008201527f20686f6c64657200000000000000000000000000000000000000000000000000602082015250565b6000612e146027836122a1565b9150612e1f82612db8565b604082019050919050565b60006020820190508181036000830152612e4381612e07565b9050919050565b7f496e636f7272656374207061796d656e7420616d6f756e740000000000000000600082015250565b6000612e806018836122a1565b9150612e8b82612e4a565b602082019050919050565b60006020820190508181036000830152612eaf81612e73565b9050919050565b6000612ec18261210e565b915060008203612ed457612ed3612c1a565b5b600182039050919050565b6000604082019050612ef46000830185612184565b612f0160208301846129a2565b9392505050565b600081519050919050565b600082825260208201905092915050565b6000612f2f82612f08565b612f398185612f13565b9350612f498185602086016122b2565b612f52816122dc565b840191505092915050565b600060a082019050612f7260008301886129a2565b612f7f60208301876129a2565b612f8c6040830186612184565b612f996060830185612184565b8181036080830152612fab8184612f24565b90509695505050505050565b600081519050612fc6816121da565b92915050565b600060208284031215612fe257612fe16120a6565b5b6000612ff084828501612fb7565b91505092915050565b600060a08201905061300e60008301886129a2565b61301b60208301876129a2565b818103604083015261302d818661286a565b90508181036060830152613041818561286a565b905081810360808301526130558184612f24565b90509695505050505050565b600060808201905061307660008301876129a2565b6130836020830186612184565b6130906040830185612184565b61309d6060830184612184565b95945050505050565b60006130b18261210e565b91506130bc8361210e565b92508282019050808211156130d4576130d3612c1a565b5b92915050565b600060408201905081810360008301526130f4818561286a565b90508181036020830152613108818461286a565b9050939250505056fea26469706673582212201e51f2e8e46b7c5bcc2577153266679e8061f58d40343eca32db0b211aa72f4364736f6c63430008140033697066733a2f2f516d533745454c4e6731415646703776687777377369734c385468735056664a57685764444858616b4d4b794763",
  "linkReferences": {},
  "deployedLinkReferences": {}
}